:100000000C9436000C945E000C945E000C945E0020
:100010000C945E000C945E000C945E000C945E00E8
:100020000C945E000C945E000C945E000C945E00D8
:100030000C945E000C945E000C945E000C945E00C8
:100040000C9445050C945E000C9426070C945E00FD
:100050000C945E000C945E000C945E000C945E00A8
:100060000C94B1020C945E00A8016F0811241FBE0D
:10007000CFEFD4E0DEBFCDBF11E0A0E0B1E0E8E615
:10008000F2E102C005900D92A231B107D9F711E05B
:10009000A2E1B1E001C01D92AF3DB107E1F710E070
:1000A000CCE6D0E004C02297FE010E942E09C8369B
:1000B000D107C9F70E943E050C9432090C94000048
:1000C0000F931F93CF93DF93689F8001699F100D5B
:1000D000789F100D1124C8010E947C00EC0100974C
:1000E00029F060E070E0A8010E947E01CE01DF915E
:1000F000CF911F910F910895CF93DF93BC01823070
:10010000910510F462E070E0A091DD01B091DE0194
:10011000ED01E0E0F0E040E050E021C0888199810D
:100120008617970769F48A819B81309719F093832A
:10013000828304C09093DE018093DD01FE0134C010
:100140006817790738F44115510519F08417950798
:1001500008F4AC01FE018A819B819C01E901209792
:10016000E9F641155105A9F1CA01861B970B0497C1
:1001700008F4BA01E0E0F0E02AC08D919C9111975B
:1001800084179507F9F46417750781F412968D9119
:100190009C911397309719F09383828304C09093B6
:1001A000DE018093DD01FD0132964CC0CA01861B41
:1001B000970BFD01E80FF91F6193719302978D93DF
:1001C0009C9340C0FD01828193819C01D9011097CD
:1001D000A1F68091DB019091DC01892B41F48091A3
:1001E0000401909105019093DC018093DB01409123
:1001F0000601509107014115510541F44DB75EB715
:100200008091020190910301481B590B2091DB0161
:100210003091DC01CA01821B930B8617970780F08F
:10022000AB014E5F5F4F8417950750F0420F531F8D
:100230005093DC014093DB01F9016193719302C09B
:10024000E0E0F0E0CF01DF91CF910895CF93DF930D
:10025000009709F450C0EC0122971B821A82A091EA
:10026000DD01B091DE01109709F140E050E0AC17DC
:10027000BD0708F1BB83AA83FE0121913191E20FF2
:10028000F31FAE17BF0779F48D919C911197280F3A
:10029000391F2E5F3F4F3983288312968D919C9191
:1002A00013979B838A834115510571F4D093DE0126
:1002B000C093DD0120C012968D919C911397AD01E2
:1002C000009711F0DC01D3CFFA01D383C2832191CF
:1002D0003191E20FF31FCE17DF0769F4888199810E
:1002E000280F391F2E5F3F4FFA01318320838A8107
:1002F0009B8193838283DF91CF910895DC0101C0BC
:100300006D9341505040E0F7089581E080931B01C8
:10031000609316011092190110921A0108958091AC
:10032000150190911401891B0895909114018091F9
:100330001501981710F080E00895E0911201F091F6
:100340001301E90FF11D80819F5F909314010895BF
:100350000895DF93CF930F92CDB7DEB76983809175
:100360001B018823A9F080911A018032B0F480919A
:100370001901E0911701F0911801E80FF11D608358
:10038000809119018F5F8093190180931A0105C034
:10039000CE01019661E00E9494020F90CF91DF910F
:1003A00008950E94A90108956091170170911801A4
:1003B0008091160140911A0121E00E944F02109293
:1003C000190110921A0110921B010895862F609155
:1003D000120170911301413208F040E20E941702AD
:1003E000109214018093150108950E94E60108956A
:1003F00080E290E061E070E00E9460008093120172
:1004000090931301109214011092150180E290E074
:1004100061E070E00E9460008093170190931801E2
:100420001092190110921A010E9433040895982F16
:10043000413210F040E031C080911D018823E1F786
:1004400081E080931D018FEF80932E011092250192
:100450004150409326014F5F990F916090931E0188
:1004600085EE8093BC0080911D018130E1F3809185
:100470002501841710F440912501A0912301B0912A
:10048000240120E030E007C0FB01E20FF31F8D9153
:1004900080832F5F3F4F2417B8F3842F08951F9355
:1004A000582F122F413210F081E03CC080911D0185
:1004B0008823E1F782E080931D018FEF80932E0166
:1004C0001092250140932601A0912301B0912401AF
:1004D000FB0102C081918D938E2F861B8417D0F370
:1004E000852F90E0880F991F80931E0185EE8093E1
:1004F000BC00112321F080911D018230E1F3809135
:100500002E018F3F11F480E00DC080912E018032CA
:1005100011F482E007C080912E01803311F084E055
:1005200001C083E01F910895482F613210F081E0EF
:10053000089580911D01843011F082E00895609348
:100540002A01A0912701B0912801842F9C01F90173
:1005500002C081918D938E2F841B8617D0F380E08B
:1005600008951F920F920FB60F9211242F933F936D
:100570004F935F936F937F938F939F93AF93BF93AB
:10058000EF93FF938091B90090E0887F9070803660
:10059000910509F4E2C081369105CCF588329105C8
:1005A00009F47BC089329105B4F48031910509F4D6
:1005B0006FC0813191053CF4009709F438C1089768
:1005C00009F040C165C08831910509F466C0809783
:1005D00009F038C17FC08034910509F4A3C081348B
:1005E000910544F48033910509F47FC0C89709F060
:1005F00029C186C08035910509F486C088359105EA
:1006000009F495C08834910509F01CC19EC0883951
:10061000910509F404C189399105ECF488379105F5
:1006200009F49BC0893791054CF48836910509F48B
:1006300094C08037910509F005C18FC088389105B5
:1006400009F4EDC08039910509F48DC08038910519
:1006500009F0F8C088C0803B910509F4B2C0813B25
:1006600091054CF4803A910509F491C0883A9105BE
:1006700009F0E8C0A6C0803C910509F4D4C0883CCC
:10068000910509F4D0C0883B910509F0DBC0B1C0E9
:1006900080911E018093BB00C0C090912501809184
:1006A0002601981778F490912501E0912301F091AB
:1006B0002401E90FF11D80818093BB009F5F90931F
:1006C0002501ABC085ED8093BC008091BC0084FD0A
:1006D000FCCFB6C080E280932E0185ED8093BC00F4
:1006E0008091BC0084FDFCCFABC080E380932E01E1
:1006F00085ED8093BC008091BC0084FDFCCFA0C040
:1007000088E380932E018FC0809125019091BB00DA
:10071000E0912301F0912401E80FF11D90838F5F98
:1007200080932501909125018091260174C08091CC
:1007300025019091BB00E0912301F0912401E80F85
:10074000F11D90838F5F8093250185ED8093BC0020
:100750008091BC0084FDFCCF73C083E080931D01B9
:1007600010922D015AC080912D01803208F057C09F
:1007700080912D019091BB00E0912B01F0912C0113
:10078000E80FF11D90838F5F80932D0146C080910B
:100790002D01803248F480912D01E0912B01F091E0
:1007A0002C01E80FF11D108260912D01E0912101D3
:1007B000F091220180912B0190912C0170E009951C
:1007C00032C084E080931D011092290110922A0109
:1007D000E0911F01F0912001099580912A01882361
:1007E00041F481E080932A01E0912701F0912801F2
:1007F000108290912901E0912701F0912801E90FE1
:10080000F11D80818093BB009F5F9093290190919F
:10081000290180912A01981710F485EC01C085E820
:100820008093BC000FC085EC8093BC0009C010927F
:100830002E0185ED8093BC008091BC0084FDFCCF2F
:1008400010921D01FF91EF91BF91AF919F918F91F8
:100850007F916F915F914F913F912F910F900FBEBC
:100860000F901F90189510921D01449A459AE9EB3C
:10087000F0E080818E7F808380818D7F808388E41B
:100880008093B80085E48093BC0080E290E061E052
:1008900070E00E946000809323019093240180E225
:1008A00090E061E070E00E946000809327019093E7
:1008B000280180E290E061E070E00E946000809397
:1008C0002B0190932C0108951F93CF93DF93809178
:1008D0002F0190913001853691050CF48DC0109256
:1008E000300110922F018CE191E062E570E046E06A
:1008F00050E00E94F501C5E3D1E017E107C08CE1AB
:1009000091E00E9495018127895E89938CE191E0B5
:100910000E948F01882399F78CE191E062E570E0F5
:100920000E9485018CE191E060E070E00E94D101BD
:100930008CE191E00E94D401409137014093310154
:10094000809138018093320120913A0130E0E1E05A
:10095000F0E0C9018E279F2781708093330136957F
:1009600027952E273F2721702093340150E060E027
:1009700070E088EC91E02AE030E00E94060788EC05
:1009800091E060E071E00E9428064091320150E061
:1009900060E070E088EC91E02AE030E00E94060719
:1009A00088EC91E060E071E00E94280640913301FC
:1009B00050E060E070E088EC91E02AE030E00E94D6
:1009C000060788EC91E060E071E00E942806409103
:1009D000340150E060E070E088EC91E02AE030E023
:1009E0000E941B0788EC91E060E071E00E942806FD
:1009F00088EC91E00E94300680912F0190913001A7
:100A000001969093300180932F0161E070E080E0C7
:100A100090E00E948D05DF91CF911F9108950F9373
:100A20001F9388EC91E040E052EC61E070E00E949E
:100A3000630787B18C6087B94298439A64E670E097
:100A400080E090E00E948D050CE111E0C8010E9459
:100A5000F801C80162E570E00E948501C80160E408
:100A600070E00E94D101C80160E070E00E94D101F5
:100A7000C8010E94D4011F910F9108950E94B705EB
:100A80000E940F050E946404FDCF1F920F920FB6C3
:100A90000F9211242F933F938F939F93AF93BF9304
:100AA00080913F0190914001A0914101B09142019C
:100AB000309143010196A11DB11D232F2D5F2D37CC
:100AC00020F02D570196A11DB11D20934301809365
:100AD0003F0190934001A0934101B0934201809166
:100AE0003B0190913C01A0913D01B0913E010196E6
:100AF000A11DB11D80933B0190933C01A0933D014A
:100B0000B0933E01BF91AF919F918F913F912F91F3
:100B10000F900FBE0F901F901895EF92FF920F93BA
:100B20001F937B018C018FB7F89440913F01509146
:100B3000400160914101709142018FBF2FB7F8943D
:100B400080913F0190914001A0914101B0914201FB
:100B50002FBF841B950BA60BB70BE816F9060A07E7
:100B60001B0760F71F910F91FF90EF900895789405
:100B700084B5826084BD84B5816084BD85B58260A2
:100B800085BD85B5816085BDEEE6F0E08081816040
:100B90008083E1E8F0E080818260808380818160F1
:100BA0008083E0E8F0E0808181608083E1EBF0E029
:100BB000808184608083E0EBF0E0808181608083CD
:100BC000EAE7F0E0808184608083808182608083B6
:100BD0008081816080838081806880831092C100E1
:100BE00008950F931F93CF93DF938C01EB0109C0FE
:100BF0002196D801ED91FC910190F081E02DC80182
:100C0000099568816623A1F7DF91CF911F910F911C
:100C10000895EF92FF920F931F93CF93DF938C0170
:100C20007B01EA010CC0D7016D917D01D801ED91E6
:100C3000FC910190F081E02DC80109952197209742
:100C400091F7DF91CF911F910F91FF90EF90089551
:100C5000DC01ED91FC910280F381E02D099508956E
:100C60000F931F938C01DC01ED91FC910190F081B9
:100C7000E02D6DE00995D801ED91FC910190F08196
:100C8000E02DC8016AE009951F910F9108952F92F8
:100C90003F924F925F926F927F928F929F92AF920C
:100CA000BF92CF92DF92EF92FF920F931F93DF9349
:100CB000CF93CDB7DEB7A0970FB6F894DEBF0FBEC7
:100CC000CDBF1C016A017B0141155105610571050C
:100CD00049F4DC01ED91FC910190F081E02D60E39D
:100CE000099554C0882499245401422E5524662421
:100CF000772401E010E00C0F1D1F080D191DC7011E
:100D0000B601A30192010E94DB08F80160830894F8
:100D1000811C911CA11CB11CC701B601A301920149
:100D20000E94DB08C901DA016C017D01C114D10404
:100D3000E104F104F1F681E0E82EF12CEC0EFD1E49
:100D4000E80CF91C3E010894611C711CD501C4011A
:100D50000197A109B1096C01C818D90814C0F6019E
:100D6000EE0DFF1D60816A3010F4605D01C0695CAA
:100D7000D101ED91FC910190F081E02DC101099527
:100D80000894E108F1086E147F0449F7A0960FB6A5
:100D9000F894DEBF0FBECDBFCF91DF911F910F91B1
:100DA000FF90EF90DF90CF90BF90AF909F908F908B
:100DB0007F906F905F904F903F902F900895EF92AB
:100DC000FF920F931F93CF93DF93EC017A018B0176
:100DD00077FF0FC0E881F9810190F081E02D6DE28D
:100DE000099510950095F094E094E11CF11C011D0B
:100DF000111DCE01B801A7012AE00E944706DF912C
:100E0000CF911F910F91FF90EF900895DC01211574
:100E1000310541F4ED91FC910190F081E02D642FBA
:100E2000099508952A30310519F40E94DF060895C6
:100E30000E94470608950F931F938C010E94060796
:100E4000C8010E9430061F910F9108951F920F92C2
:100E50000FB60F9211242F933F934F935F936F938D
:100E60007F938F939F93AF93BF93EF93FF934091A3
:100E7000C600E091C401F091C501CF01019660E880
:100E800070E00E94C8089C018091C6019091C70142
:100E90002817390739F0EC5BFE4F40833093C501CA
:100EA0002093C401FF91EF91BF91AF919F918F91DA
:100EB0007F916F915F914F913F912F910F900FBE56
:100EC0000F901F9018955F926F927F928F929F92D2
:100ED000AF92BF92CF92DF92EF92FF920F931F9348
:100EE000CF93DF93EC013A014B01413482E4580780
:100EF0008FE0680780E078070CF07FC060E874E856
:100F00008EE190E0A40193010E94FD082150304041
:100F100040405040CA01B90122E030E040E050E0DA
:100F20000E94FD0859016A01A6019501209530959E
:100F30004095509594E0220F331F441F551F9A95FA
:100F4000D1F760E074E284EF90E00E94FD08CA01EE
:100F5000B9012FEF30E040E050E00E94A908A40161
:100F600093010E94FD08C90181509F4F1816190670
:100F70001CF4522E5A9403C055245394521A60E024
:100F800079E08DE390E0A40193010E94FD082150D7
:100F9000304040405040CA01B90122E030E040E01A
:100FA00050E00E94FD08209530954095509583E0D3
:100FB000220F331F441F551F8A95D1F760E074E25A
:100FC00084EF90E00E94FD08CA01B9012FEF30E0E4
:100FD00040E050E00E94A908A40193010E94FD088E
:100FE000C90181509F4F181619061CF4822F815099
:100FF00002C081E0821B851500F5E885F98581E056
:1010000090E00A8802C0880F991F0A94E2F7808353
:1010100060E079E08DE390E0A40193010E94FD0877
:101020002150304040405040CA01B90122E030E038
:1010300040E050E00E94FD0804C0E885F985108278
:101040009501EC81FD813083EE81FF812083EA856B
:10105000FB85208141E050E0CA010E8402C0880F68
:10106000991F0A94E2F7282B2083EA85FB852081CB
:10107000CA010F8402C0880F991F0A94E2F7282B37
:101080002083EA85FB858081088802C0440F551FB4
:101090000A94E2F7842B8083DF91CF911F910F9107
:1010A000FF90EF90DF90CF90BF90AF909F908F9088
:1010B0007F906F905F900895FC01A085B185218994
:1010C0008C9190E0022E02C0959587950A94E2F7E4
:1010D00080FFF6CF0484F585E02D608308958CE0D1
:1010E00091E09093C9018093C80184E491E09093CA
:1010F000CB018093CA0185EC90E09093CD01809361
:10110000CC0184EC90E09093CF018093CE0180ECF1
:1011100090E09093D1018093D00181EC90E0909386
:10112000D3018093D20186EC90E09093D501809317
:10113000D40184E08093D60183E08093D70187E0D7
:101140008093D80185E08093D90181E08093DA0112
:101150000895629FD001739FF001829FE00DF11D01
:10116000649FE00DF11D929FF00D839FF00D749F21
:10117000F00D659FF00D9927729FB00DE11DF91FCD
:10118000639FB00DE11DF91FBD01CF01112408952A
:1011900097FB092E07260AD077FD04D049D006D048
:1011A00000201AF4709561957F4F0895F6F7909599
:1011B00081959F4F0895A1E21A2EAA1BBB1BFD012A
:1011C0000DC0AA1FBB1FEE1FFF1FA217B307E40726
:1011D000F50720F0A21BB30BE40BF50B661F771F7E
:1011E000881F991F1A9469F760957095809590955E
:1011F0009B01AC01BD01CF01089597FB092E052687
:101200000ED057FD04D0D7DF0AD0001C38F450951B
:101210004095309521953F4F4F4F5F4F0895F6F71A
:1012200090958095709561957F4F8F4F9F4F089552
:10123000AA1BBB1B51E107C0AA1FBB1FA617B707FC
:1012400010F0A61BB70B881F991F5A95A9F7809518
:101250009095BC01CD010895EE0FFF1F0590F4910C
:08126000E02D0994F894FFCF82
:1012680020002000DF010000000000005C08F105FC
:02127800090665
:00000001FF
