:100000000C9436000C945E000C945E000C945E0020
:100010000C945E000C945E000C945E000C945E00E8
:100020000C945E000C945E000C945E000C945E00D8
:100030000C945E000C945E000C945E000C945E00C8
:100040000C94E2060C945E000C9409090C945E007A
:100050000C945E000C945E000C945E000C945E00A8
:100060000C94B1020C945E00A801520A11241FBE28
:10007000CFEFD4E0DEBFCDBF11E0A0E0B1E0E6EC11
:10008000F8E102C005900D92A632B107D9F712E04F
:10009000A6E2B1E001C01D92A332B107E1F710E082
:1000A000CCE6D0E004C02297FE010E945D0CC83669
:1000B000D107C9F70E94DB060C94610C0C94000078
:1000C0000F931F93CF93DF93689F8001699F100D5B
:1000D000789F100D1124C8010E947C00EC0100974C
:1000E00029F060E070E0A8010E947E01CE01DF915E
:1000F000CF911F910F910895CF93DF93BC01823070
:10010000910510F462E070E0A0912102B09122020A
:10011000ED01E0E0F0E040E050E021C0888199810D
:100120008617970769F48A819B81309719F093832A
:10013000828304C09093220280932102FE0134C086
:100140006817790738F44115510519F08417950798
:1001500008F4AC01FE018A819B819C01E901209792
:10016000E9F641155105A9F1CA01861B970B0497C1
:1001700008F4BA01E0E0F0E02AC08D919C9111975B
:1001800084179507F9F46417750781F412968D9119
:100190009C911397309719F09383828304C09093B6
:1001A000220280932102FD0132964CC0CA01861BB7
:1001B000970BFD01E80FF91F6193719302978D93DF
:1001C0009C9340C0FD01828193819C01D9011097CD
:1001D000A1F680911F0290912002892B41F4809119
:1001E0000401909105019093200280931F02409199
:1001F0000601509107014115510541F44DB75EB715
:100200008091020190910301481B590B20911F021C
:1002100030912002CA01821B930B8617970780F04A
:10022000AB014E5F5F4F8417950750F0420F531F8D
:100230005093200240931F02F9016193719302C011
:10024000E0E0F0E0CF01DF91CF910895CF93DF930D
:10025000009709F450C0EC0122971B821A82A091EA
:100260002102B0912202109709F140E050E0AC1752
:10027000BD0708F1BB83AA83FE0121913191E20FF2
:10028000F31FAE17BF0779F48D919C911197280F3A
:10029000391F2E5F3F4F3983288312968D919C9191
:1002A00013979B838A834115510571F4D0932202E1
:1002B000C093210220C012968D919C911397AD019D
:1002C000009711F0DC01D3CFFA01D383C2832191CF
:1002D0003191E20FF31FCE17DF0769F4888199810E
:1002E000280F391F2E5F3F4FFA01318320838A8107
:1002F0009B8193838283DF91CF910895DC0101C0BC
:100300006D9341505040E0F7089581E080932F01B4
:1003100060932A0110922D0110922E010895809170
:10032000290190912801891B0895909128018091BD
:100330002901981710F080E00895E0912601F091CE
:100340002701E90FF11D80819F5F90932801089597
:100350000895DF93CF930F92CDB7DEB76983809175
:100360002F018823A9F080912E018032B0F4809172
:100370002D01E0912B01F0912C01E80FF11D60831C
:1003800080912D018F5F80932D0180932E0105C0F8
:10039000CE01019661E00E9494020F90CF91DF910F
:1003A00008950E94A901089560912B0170912C017C
:1003B00080912A0140912E0121E00E944F0210926B
:1003C0002D0110922E0110922F010895862F609119
:1003D000260170912701413208F040E20E94170285
:1003E000109228018093290108950E94E601089542
:1003F00080E290E061E070E00E946000809326015E
:1004000090932701109228011092290180E290E038
:1004100061E070E00E94600080932B0190932C01BA
:1004200010922D0110922E010E9433040895982FEE
:10043000413210F040E031C0809131018823E1F772
:1004400081E0809331018FEF809342011092390156
:10045000415040933A014F5F990F91609093320160
:1004600085EE8093BC00809131018130E1F3809171
:100470003901841710F440913901A0913701B091EE
:10048000380120E030E007C0FB01E20FF31F8D913F
:1004900080832F5F3F4F2417B8F3842F08951F9355
:1004A000582F122F413210F081E03CC08091310171
:1004B0008823E1F782E0809331018FEF809342013E
:1004C0001092390140933A01A0913701B09138015F
:1004D000FB0102C081918D938E2F861B8417D0F370
:1004E000852F90E0880F991F8093320185EE8093CD
:1004F000BC00112321F0809131018230E1F3809121
:1005000042018F3F11F480E00DC0809142018032A2
:1005100011F482E007C080914201803311F084E041
:1005200001C083E01F910895482F613210F081E0EF
:10053000089580913101843011F082E00895609334
:100540003E01A0913B01B0913C01842F9C01F90137
:1005500002C081918D938E2F841B8617D0F380E08B
:1005600008951F920F920FB60F9211242F933F936D
:100570004F935F936F937F938F939F93AF93BF93AB
:10058000EF93FF938091B90090E0887F9070803660
:10059000910509F4E2C081369105CCF588329105C8
:1005A00009F47BC089329105B4F48031910509F4D6
:1005B0006FC0813191053CF4009709F438C1089768
:1005C00009F040C165C08831910509F466C0809783
:1005D00009F038C17FC08034910509F4A3C081348B
:1005E000910544F48033910509F47FC0C89709F060
:1005F00029C186C08035910509F486C088359105EA
:1006000009F495C08834910509F01CC19EC0883951
:10061000910509F404C189399105ECF488379105F5
:1006200009F49BC0893791054CF48836910509F48B
:1006300094C08037910509F005C18FC088389105B5
:1006400009F4EDC08039910509F48DC08038910519
:1006500009F0F8C088C0803B910509F4B2C0813B25
:1006600091054CF4803A910509F491C0883A9105BE
:1006700009F0E8C0A6C0803C910509F4D4C0883CCC
:10068000910509F4D0C0883B910509F0DBC0B1C0E9
:10069000809132018093BB00C0C09091390180915C
:1006A0003A01981778F490913901E0913701F0916F
:1006B0003801E90FF11D80818093BB009F5F90930B
:1006C0003901ABC085ED8093BC008091BC0084FDF6
:1006D000FCCFB6C080E28093420185ED8093BC00E0
:1006E0008091BC0084FDFCCFABC080E380934201CD
:1006F00085ED8093BC008091BC0084FDFCCFA0C040
:1007000088E3809342018FC0809139019091BB00B2
:10071000E0913701F0913801E80FF11D90838F5F70
:10072000809339019091390180913A0174C0809190
:1007300039019091BB00E0913701F0913801E80F49
:10074000F11D90838F5F8093390185ED8093BC000C
:100750008091BC0084FDFCCF73C083E080933101A5
:10076000109241015AC080914101803208F057C077
:10077000809141019091BB00E0913F01F0914001D7
:10078000E80FF11D90838F5F8093410146C08091F7
:100790004101803248F480914101E0913F01F091A4
:1007A0004001E80FF11D108260914101E091350197
:1007B000F091360180913F019091400170E00995E0
:1007C00032C084E08093310110923D0110923E01CD
:1007D000E0913301F0913401099580913E01882325
:1007E00041F481E080933E01E0913B01F0913C01B6
:1007F000108290913D01E0913B01F0913C01E90FA5
:10080000F11D80818093BB009F5F90933D0190918B
:100810003D0180913E01981710F485EC01C085E8F8
:100820008093BC000FC085EC8093BC0009C010927F
:10083000420185ED8093BC008091BC0084FDFCCF1B
:1008400010923101FF91EF91BF91AF919F918F91E4
:100850007F916F915F914F913F912F910F900FBEBC
:100860000F901F90189510923101449A459AE9EB28
:10087000F0E080818E7F808380818D7F808388E41B
:100880008093B80085E48093BC0080E290E061E052
:1008900070E00E946000809337019093380180E2FD
:1008A00090E061E070E00E94600080933B019093D3
:1008B0003C0180E290E061E070E00E946000809383
:1008C0003F019093400108952F923F924F925F9283
:1008D0006F927F928F929F92AF92BF92CF92DF9250
:1008E000EF92FF920F931F93DF93CF9300D000D02E
:1008F00000D0CDB7DEB780917101909172019093D5
:100900007401809373012090180130901901209197
:100910007501309176018090490190904A01A09034
:100920004B01B0904C0180917701909178014DE49A
:1009300051E05E834D83CC24DD24A901662757FD59
:100940006095762F49835A836B837C832C016624C0
:1009500057FC6094762C48C069817A818B819C8198
:100960000E94280B7B018C01ED81FE8160817181E9
:10097000882777FD8095982F0E94280BA501940168
:100980000E948D0A9B01AC01C801B7010E94F10AC7
:1009900088230CF5C301B2010E94280B7B018C0156
:1009A000ED81FE8162817381882777FD8095982F84
:1009B0000E94280BA50194010E948D0A9B01AC01A5
:1009C000C801B7010E94F10A88232CF4D092720169
:1009D000C09271010DC00894C11CD11C4D815E8173
:1009E0004C5F5F4F5E834D83C214D3040CF4B4CFCD
:1009F00026960FB6F894DEBF0FBECDBFCF91DF9124
:100A00001F910F91FF90EF90DF90CF90BF90AF902C
:100A10009F908F907F906F905F904F903F902F901E
:100A20000895CF92DF92EF92FF920F931F93CF938F
:100A3000DF93CC24DD24EE24FF243CC019830883FB
:100A4000FB82EA828CE092E0B8010E94A3088CE06D
:100A500092E060E071E00E94C5076A817B818CE0D2
:100A600092E00E94A3088CE092E00E94CD070894D7
:100A7000C11CD11C80911A0190911B0163E070E0B0
:100A80000E94F70B060F171F249620911A01309130
:100A90001B01C9016DEF7FEF0E94F70B620F731FFF
:100AA000061717075CF2C90163E070E00E94F70BBC
:100AB000E60EF71E20911A0130911B01C9016DEF5E
:100AC0007FEF0E94F70B260F371FE216F30654F450
:100AD000E601CC0FDD1FCC0FDD1FC35BDE4F00E056
:100AE00010E0D3CFDF91CF911F910F91FF90EF9046
:100AF000DF90CF9008950F931F930CE012E0409188
:100B0000710150E060E070E0C8012AE030E00E942E
:100B1000AB08C80160E071E00E94C507C8010E94EF
:100B2000CD071F910F9108954F925F926F927F9220
:100B30008F929F92AF92BF92CF92DF92EF92FF92ED
:100B40000F931F93CF93DF938091430190914401C2
:100B500002970CF4C9C0109244011092430180E343
:100B600091E062E570E046E050E00E94F501C9E7DF
:100B7000D1E017E107C080E391E00E949501812751
:100B8000895E899380E391E00E948F01882399F721
:100B900080E391E062E570E00E94850180E391E0EE
:100BA00060E070E00E94D10180E391E00E94D401F6
:100BB000A0907B01A092450180917C018093460129
:100BC00020917E0130E041E050E0C9018427952763
:100BD000817080934701369527952427352721700A
:100BE0002093480100D000D04DB65EB60894411C59
:100BF000511CBB24CC24DD246091100170911101A3
:100C000080911201909113010E94F50A3B014C0161
:100C10006091140170911501809116019091170156
:100C20000E94F50A7B018C0180E293E0A0E0B0E035
:100C3000F20180839183A283B383C601B501A4012D
:100C40009301AA24BB2465010E94C0087093760119
:100C5000609375014DB65EB60894411C511CA0907E
:100C60004601BB24CC24DD2460910C0170910D0160
:100C700080910E0190910F010E94F50A3B014C01F9
:100C8000609108017091090180910A0190910B0116
:100C90000E94F50A7B018C01F201108211821282FE
:100CA0001382C601B501A4019301E0E2AE2EE3E098
:100CB000BE2EC12CD12C0E94C00870937801609385
:100CC00077010F900F900F900F900E946404209175
:100CD0007301309174018091710190917201281714
:100CE000390711F00E947B058091430190914401E6
:100CF0000196909344018093430161E070E080E0AD
:100D000090E00E942A07DF91CF911F910F91FF90F1
:100D1000EF90DF90CF90BF90AF909F908F907F909B
:100D20006F905F904F9008950F931F9380911A01D9
:100D300090911B0163E070E00E94F70B882777FD1C
:100D40008095982F0E94280B6093490170934A0167
:100D500080934B0190934C018CE092E040E052EC88
:100D600061E070E00E94460987B18C6087B94298C3
:100D7000439A64E670E080E090E00E942A0700E376
:100D800011E0C8010E94F801C80162E570E00E940C
:100D90008501C80160E470E00E94D101C80160E0F3
:100DA00070E00E94D101C8010E94D4010E94110587
:100DB0001F910F9108950E9454070E9494060E946B
:100DC0009405FDCF1F920F920FB60F9211242F930F
:100DD0003F938F939F93AF93BF93809183019091A3
:100DE0008401A0918501B09186013091870101961F
:100DF000A11DB11D232F2D5F2D3720F02D570196FA
:100E0000A11DB11D209387018093830190938401DC
:100E1000A0938501B093860180917F01909180011C
:100E2000A0918101B09182010196A11DB11D809315
:100E30007F0190938001A0938101B0938201BF91C3
:100E4000AF919F918F913F912F910F900FBE0F9077
:100E50001F901895EF92FF920F931F937B018C01C7
:100E60008FB7F8944091830150918401609185017E
:100E7000709186018FBF2FB7F89480918301909174
:100E80008401A0918501B09186012FBF841B950B31
:100E9000A60BB70BE816F9060A071B0760F71F91A8
:100EA0000F91FF90EF900895789484B5826084BD8F
:100EB00084B5816084BD85B5826085BD85B581605E
:100EC00085BDEEE6F0E0808181608083E1E8F0E0BE
:100ED000808182608083808181608083E0E8F0E0AF
:100EE000808181608083E1EBF0E080818460808399
:100EF000E0EBF0E0808181608083EAE7F0E08081D0
:100F0000846080838081826080838081816080832F
:100F10008081806880831092C10008950F931F9391
:100F2000CF93DF938C01EB0109C02196D801ED919D
:100F3000FC910190F081E02DC8010995688166233C
:100F4000A1F7DF91CF911F910F910895EF92FF923A
:100F50000F931F93CF93DF938C017B01EA010CC0A9
:100F6000D7016D917D01D801ED91FC910190F08147
:100F7000E02DC80109952197209791F7DF91CF9136
:100F80001F910F91FF90EF900895DC01ED91FC917E
:100F90000280F381E02D099508950F931F938C0132
:100FA000DC01ED91FC910190F081E02D6DE009955F
:100FB000D801ED91FC910190F081E02DC8016AE02B
:100FC00009951F910F9108952F923F924F925F9232
:100FD0006F927F928F929F92AF92BF92CF92DF9249
:100FE000EF92FF920F931F93DF93CF93CDB7DEB7AE
:100FF000A0970FB6F894DEBF0FBECDBF1C016A01EB
:101000007B01411551056105710549F4DC01ED9144
:10101000FC910190F081E02D60E3099554C0882493
:1010200099245401422E55246624772401E010E0CF
:101030000C0F1D1F080D191DC701B601A301920158
:101040000E940A0CF80160830894811C911CA11C69
:10105000B11CC701B601A30192010E940A0CC9018B
:10106000DA016C017D01C114D104E104F104F1F64F
:1010700081E0E82EF12CEC0EFD1EE80CF91C3E017F
:101080000894611C711CD501C4010197A109B10923
:101090006C01C818D90814C0F601EE0DFF1D60815F
:1010A0006A3010F4605D01C0695CD101ED91FC9182
:1010B0000190F081E02DC10109950894E108F10843
:1010C0006E147F0449F7A0960FB6F894DEBF0FBEEA
:1010D000CDBFCF91DF911F910F91FF90EF90DF90E7
:1010E000CF90BF90AF909F908F907F906F905F90C8
:1010F0004F903F902F900895EF92FF920F931F9380
:10110000CF93DF93EC017A018B0177FF0FC0E88169
:10111000F9810190F081E02D6DE20995109500951F
:10112000F094E094E11CF11C011D111DCE01B801E9
:10113000A7012AE00E94E407DF91CF911F910F9150
:10114000FF90EF900895AB01662757FD6095762FCD
:101150000E947C080895DC012115310541F4ED91D0
:10116000FC910190F081E02D642F099508952A30BB
:10117000310519F40E947C0808950E94E40708953F
:101180002F923F924F925F926F927F928F929F9297
:10119000AF92BF92CF92DF92EF92FF920F931F9385
:1011A000DF93CF93CDB7DEB73B014C0119012A0184
:1011B0006D897E898F89988D6A197B098C099D09B3
:1011C000621A730A840A950AA40193010E94D80B3B
:1011D000E218F30804091509A80197010E942C0CD4
:1011E0002A0D3B1D4C1D5D1DB901CA01CF91DF9138
:1011F0001F910F91FF90EF90DF90CF90BF90AF9035
:101200009F908F907F906F905F904F903F902F9026
:1012100008951F920F920FB60F9211242F933F93B0
:101220004F935F936F937F938F939F93AF93BF93EE
:10123000EF93FF934091C600E0910802F0910902FC
:10124000CF01019660E870E00E94F70B9C0180914D
:101250000A0290910B022817390739F0E857FE4F20
:1012600040833093090220930802FF91EF91BF91D0
:10127000AF919F918F917F916F915F914F913F912E
:101280002F910F900FBE0F901F9018955F926F9245
:101290007F928F929F92AF92BF92CF92DF92EF9206
:1012A000FF920F931F93CF93DF93EC013A014B0111
:1012B000413482E458078FE0680780E078070CF03B
:1012C0007FC060E874E88EE190E0A40193010E9481
:1012D0002C0C2150304040405040CA01B90122E05E
:1012E00030E040E050E00E942C0C59016A01A60158
:1012F0009501209530954095509594E0220F331F2D
:10130000441F551F9A95D1F760E074E284EF90E096
:101310000E942C0CCA01B9012FEF30E040E050E0F0
:101320000E94D80BA40193010E942C0CC90181508A
:101330009F4F181619061CF4522E5A9403C05524B8
:101340005394521A60E079E08DE390E0A401930198
:101350000E942C0C2150304040405040CA01B9013D
:1013600022E030E040E050E00E942C0C20953095C7
:101370004095509583E0220F331F441F551F8A95D7
:10138000D1F760E074E284EF90E00E942C0CCA0177
:10139000B9012FEF30E040E050E00E94D80BA401EB
:1013A00093010E942C0CC90181509F4F18161906F9
:1013B0001CF4822F815002C081E0821B851500F54C
:1013C000E885F98581E090E00A8802C0880F991FBE
:1013D0000A94E2F7808360E079E08DE390E0A40175
:1013E00093010E942C0C2150304040405040CA01D3
:1013F000B90122E030E040E050E00E942C0C04C033
:10140000E885F98510829501EC81FD813083EE81BC
:10141000FF812083EA85FB85208141E050E0CA01FD
:101420000E8402C0880F991F0A94E2F7282B2083AC
:10143000EA85FB852081CA010F8402C0880F991FAD
:101440000A94E2F7282B2083EA85FB8580810888AF
:1014500002C0440F551F0A94E2F7842B8083DF916A
:10146000CF911F910F91FF90EF90DF90CF90BF90A1
:10147000AF909F908F907F906F905F900895FC0148
:10148000A085B18521898C9190E0022E02C09595AE
:1014900087950A94E2F780FFF6CF0484F585E02D66
:1014A0006083089580E291E090930D0280930C0296
:1014B00088E891E090930F0280930E0285EC90E013
:1014C000909311028093100284EC90E090931302A9
:1014D0008093120280EC90E09093150280931402A6
:1014E00081EC90E0909317028093160286EC90E0D6
:1014F000909319028093180284E080931A0283E08B
:1015000080931B0287E080931C0285E080931D027C
:1015100081E080931E0208955058BB27AA270ED061
:101520000DC1FED030F003D120F031F49F3F11F413
:101530001EF4F3C00EF4E095E7FBE9C0E92F0FD1EC
:1015400080F3BA17620773078407950718F071F4E0
:101550009EF527C10EF4E0950B2EBA2FA02D0B019E
:10156000B90190010C01CA01A0011124FF27591BE8
:1015700099F0593F50F4503E68F11A16F040A22FEE
:10158000232F342F4427585FF3CF4695379527955F
:10159000A795F0405395C9F77EF41F16BA0B620B5E
:1015A000730B840BBAF09150A1F0FF0FBB1F661FA5
:1015B000771F881FC2F70EC0BA0F621F731F841FE8
:1015C00048F4879577956795B795F7959E3F08F00E
:1015D000B3CF9395880F08F09927EE0F97958795CD
:1015E000089571D008F481E0089504D06894B11191
:1015F000D9C00895BCD088F09F5790F0B92F992793
:10160000B751A0F0D1F0660F771F881F991F1AF00D
:10161000BA95C9F712C0B13081F0C3D0B1E00895D6
:10162000C0C0672F782F8827B85F39F0B93FCCF357
:10163000869577956795B395D9F73EF49095809503
:10164000709561957F4F8F4F9F4F0895E89409C023
:1016500097FB3EF490958095709561957F4F8F4FE5
:101660009F4F9923A9F0F92F96E9BB279395F695FB
:10167000879577956795B795F111F8CFFAF4BB0F79
:1016800011F460FF1BC06F5F7F4F8F4F9F4F16C0DD
:10169000882311F096E911C0772321F09EE8872F67
:1016A000762F05C0662371F096E8862F70E060E023
:1016B0002AF09A95660F771F881FDAF7880F96959C
:1016C000879597F90895990F0008550FAA0BE0E840
:1016D000FEEF16161706E807F907C0F012161306F4
:1016E000E407F50798F0621B730B840B950B39F434
:1016F0000A2661F0232B242B252B21F408950A269A
:1017000009F4A140A6958FEF811D811D089597F9D9
:101710009F6780E870E060E008959FEF80EC089597
:1017200000240A94161617061806090608950024C0
:101730000A9412161306140605060895092E03943A
:10174000000C11F4882352F0BB0F40F4BF2B11F4AE
:1017500060FF04C06F5F7F4F8F4F9F4F089557FD0D
:101760009058440F551F59F05F3F71F04795880F0F
:1017700097FB991F61F09F3F79F0879508951216A6
:1017800013061406551FF2CF4695F1DF08C0161652
:1017900017061806991FF1CF869571056105089403
:1017A0000895E894BB2766277727CB0197F908951A
:1017B000629FD001739FF001829FE00DF11D649F35
:1017C000E00DF11D929FF00D839FF00D749FF00DC1
:1017D000659FF00D9927729FB00DE11DF91F639F62
:1017E000B00DE11DF91FBD01CF011124089597FB34
:1017F000092E07260AD077FD04D049D006D0002054
:101800001AF4709561957F4F0895F6F7909581953C
:101810009F4F0895A1E21A2EAA1BBB1BFD010DC00C
:10182000AA1FBB1FEE1FFF1FA217B307E407F50790
:1018300020F0A21BB30BE40BF50B661F771F881F6C
:10184000991F1A9469F760957095809590959B0102
:10185000AC01BD01CF01089597FB092E05260ED0DE
:1018600057FD04D0D7DF0AD0001C38F450954095BE
:10187000309521953F4F4F4F5F4F0895F6F7909564
:101880008095709561957F4F8F4F9F4F0895AA1B4C
:10189000BB1B51E107C0AA1FBB1FA617B70710F05B
:1018A000A61BB70B881F991F5A95A9F7809590958D
:1018B000BC01CD010895EE0FFF1F0590F491E02DBE
:0618C0000994F894FFCF2B
:1018C6002000200023020000000037430000A04251
:1018D6000000A0420000374309002003000000007A
:0618E6003F0A8E07A60771
:00000001FF
