:100000000C9436000C945E000C945E000C945E0020
:100010000C945E000C945E000C945E000C945E00E8
:100020000C945E000C945E000C945E000C945E00D8
:100030000C945E000C945E000C945E000C945E00C8
:100040000C9452060C945E000C9484080C945E0090
:100050000C945E000C945E000C945E000C945E00A8
:100060000C94B1020C945E00A801CD0911241FBEAE
:10007000CFEFD8E0DEBFCDBF11E0A0E0B1E0E2E518
:10008000F6E102C005900D92A432B107D9F712E053
:10009000A4E2B1E001C01D92AD31B107E1F710E07B
:1000A000CCE6D0E004C02297FE010E94230BC836A4
:1000B000D107C9F70E944B060C94270B0C94000043
:1000C0000F931F93CF93DF93689F8001699F100D5B
:1000D000789F100D1124C8010E947C00EC0100974C
:1000E00029F060E070E0A8010E947E01CE01DF915E
:1000F000CF911F910F910895CF93DF93BC01823070
:10010000910510F462E070E0A0911B02B0911C0216
:10011000ED01E0E0F0E040E050E021C0888199810D
:100120008617970769F48A819B81309719F093832A
:10013000828304C090931C0280931B02FE0134C092
:100140006817790738F44115510519F08417950798
:1001500008F4AC01FE018A819B819C01E901209792
:10016000E9F641155105A9F1CA01861B970B0497C1
:1001700008F4BA01E0E0F0E02AC08D919C9111975B
:1001800084179507F9F46417750781F412968D9119
:100190009C911397309719F09383828304C09093B6
:1001A0001C0280931B02FD0132964CC0CA01861BC3
:1001B000970BFD01E80FF91F6193719302978D93DF
:1001C0009C9340C0FD01828193819C01D9011097CD
:1001D000A1F68091190290911A02892B41F4809125
:1001E00004019091050190931A02809319024091A5
:1001F0000601509107014115510541F44DB75EB715
:100200008091020190910301481B590B2091190222
:1002100030911A02CA01821B930B8617970780F050
:10022000AB014E5F5F4F8417950750F0420F531F8D
:1002300050931A0240931902F9016193719302C01D
:10024000E0E0F0E0CF01DF91CF910895CF93DF930D
:10025000009709F450C0EC0122971B821A82A091EA
:100260001B02B0911C02109709F140E050E0AC175E
:10027000BD0708F1BB83AA83FE0121913191E20FF2
:10028000F31FAE17BF0779F48D919C911197280F3A
:10029000391F2E5F3F4F3983288312968D919C9191
:1002A00013979B838A834115510571F4D0931C02E7
:1002B000C0931B0220C012968D919C911397AD01A3
:1002C000009711F0DC01D3CFFA01D383C2832191CF
:1002D0003191E20FF31FCE17DF0769F4888199810E
:1002E000280F391F2E5F3F4FFA01318320838A8107
:1002F0009B8193838283DF91CF910895DC0101C0BC
:100300006D9341505040E0F7089581E080932D01B6
:100310006093280110922B0110922C010895809176
:10032000270190912601891B0895909126018091C3
:100330002701981710F080E00895E0912401F091D2
:100340002501E90FF11D80819F5F9093260108959B
:100350000895DF93CF930F92CDB7DEB76983809175
:100360002D018823A9F080912C018032B0F4809176
:100370002B01E0912901F0912A01E80FF11D608322
:1003800080912B018F5F80932B0180932C0105C0FE
:10039000CE01019661E00E9494020F90CF91DF910F
:1003A00008950E94A90108956091290170912A0180
:1003B0008091280140912C0121E00E944F0210926F
:1003C0002B0110922C0110922D010895862F60911F
:1003D000240170912501413208F040E20E94170289
:1003E000109226018093270108950E94E601089546
:1003F00080E290E061E070E00E9460008093240160
:1004000090932501109226011092270180E290E03E
:1004100061E070E00E9460008093290190932A01BE
:1004200010922B0110922C010E9433040895982FF2
:10043000413210F040E031C080912F018823E1F774
:1004400081E080932F018FEF80934001109237015C
:100450004150409338014F5F990F91609093300164
:1004600085EE8093BC0080912F018130E1F3809173
:100470003701841710F440913701A0913501B091F4
:10048000360120E030E007C0FB01E20FF31F8D9141
:1004900080832F5F3F4F2417B8F3842F08951F9355
:1004A000582F122F413210F081E03CC080912F0173
:1004B0008823E1F782E080932F018FEF8093400142
:1004C0001092370140933801A0913501B091360167
:1004D000FB0102C081918D938E2F861B8417D0F370
:1004E000852F90E0880F991F8093300185EE8093CF
:1004F000BC00112321F080912F018230E1F3809123
:1005000040018F3F11F480E00DC0809140018032A6
:1005100011F482E007C080914001803311F084E043
:1005200001C083E01F910895482F613210F081E0EF
:10053000089580912F01843011F082E00895609336
:100540003C01A0913901B0913A01842F9C01F9013D
:1005500002C081918D938E2F841B8617D0F380E08B
:1005600008951F920F920FB60F9211242F933F936D
:100570004F935F936F937F938F939F93AF93BF93AB
:10058000EF93FF938091B90090E0887F9070803660
:10059000910509F4E2C081369105CCF588329105C8
:1005A00009F47BC089329105B4F48031910509F4D6
:1005B0006FC0813191053CF4009709F438C1089768
:1005C00009F040C165C08831910509F466C0809783
:1005D00009F038C17FC08034910509F4A3C081348B
:1005E000910544F48033910509F47FC0C89709F060
:1005F00029C186C08035910509F486C088359105EA
:1006000009F495C08834910509F01CC19EC0883951
:10061000910509F404C189399105ECF488379105F5
:1006200009F49BC0893791054CF48836910509F48B
:1006300094C08037910509F005C18FC088389105B5
:1006400009F4EDC08039910509F48DC08038910519
:1006500009F0F8C088C0803B910509F4B2C0813B25
:1006600091054CF4803A910509F491C0883A9105BE
:1006700009F0E8C0A6C0803C910509F4D4C0883CCC
:10068000910509F4D0C0883B910509F0DBC0B1C0E9
:10069000809130018093BB00C0C090913701809160
:1006A0003801981778F490913701E0913501F09175
:1006B0003601E90FF11D80818093BB009F5F90930D
:1006C0003701ABC085ED8093BC008091BC0084FDF8
:1006D000FCCFB6C080E28093400185ED8093BC00E2
:1006E0008091BC0084FDFCCFABC080E380934001CF
:1006F00085ED8093BC008091BC0084FDFCCFA0C040
:1007000088E3809340018FC0809137019091BB00B6
:10071000E0913501F0913601E80FF11D90838F5F74
:1007200080933701909137018091380174C0809196
:1007300037019091BB00E0913501F0913601E80F4F
:10074000F11D90838F5F8093370185ED8093BC000E
:100750008091BC0084FDFCCF73C083E080932F01A7
:1007600010923F015AC080913F01803208F057C07B
:1007700080913F019091BB00E0913D01F0913E01DD
:10078000E80FF11D90838F5F80933F0146C08091F9
:100790003F01803248F480913F01E0913D01F091AA
:1007A0003E01E80FF11D108260913F01E09133019D
:1007B000F091340180913D0190913E0170E00995E6
:1007C00032C084E080932F0110923B0110923C01D3
:1007D000E0913101F0913201099580913C0188232B
:1007E00041F481E080933C01E0913901F0913A01BC
:1007F000108290913B01E0913901F0913A01E90FAB
:10080000F11D80818093BB009F5F90933B0190918D
:100810003B0180913C01981710F485EC01C085E8FC
:100820008093BC000FC085EC8093BC0009C010927F
:10083000400185ED8093BC008091BC0084FDFCCF1D
:1008400010922F01FF91EF91BF91AF919F918F91E6
:100850007F916F915F914F913F912F910F900FBEBC
:100860000F901F90189510922F01449A459AE9EB2A
:10087000F0E080818E7F808380818D7F808388E41B
:100880008093B80085E48093BC0080E290E061E052
:1008900070E00E946000809335019093360180E201
:1008A00090E061E070E00E946000809339019093D5
:1008B0003A0180E290E061E070E00E946000809385
:1008C0003D0190933E010895CF92DF92EF92FF9207
:1008D0000F931F93CF93DF93CC24DD24EE24FF24CA
:1008E0003CC019830883FB82EA8286E092E0B8016B
:1008F0000E94130886E092E060E071E00E943507F4
:100900006A817B8186E092E00E94130886E092E093
:100910000E943D070894C11CD11C80911801909140
:10092000190163E070E00E94BD0A060F171F2496AC
:100930002091180130911901C9016DEF7FEF0E94DC
:10094000BD0A620F731F061717075CF2C90163E047
:1009500070E00E94BD0AE60EF71E2091180130914A
:100960001901C9016DEF7FEF0E94BD0A260F371FE5
:10097000E216F30654F4E601CC0FDD1FCC0FDD1FA9
:10098000C55BDE4F00E010E0D3CFDF91CF911F9128
:100990000F91FF90EF90DF90CF900895EF92FF922C
:1009A0000F931F9306E012E04091430150E060E096
:1009B00070E0C8012AE030E00E941B0890E0E92EB8
:1009C00091E0F92EC801B7010E943507409144011A
:1009D00050E060E070E0C8012AE030E00E941B08AF
:1009E000C801B7010E9435074091450150E060E021
:1009F00070E0C8012AE030E00E941B08C801B7017E
:100A00000E9435074091460150E060E070E0C80167
:100A10002AE030E00E9430081F910F91FF90EF9084
:100A200008954F925F926F927F928F929F92AF92B2
:100A3000BF92CF92DF92EF92FF920F931F93CF93CB
:100A4000DF93809141019091420102970CF4BCC068
:100A500010924201109241018EE291E062E570E055
:100A600046E050E00E94F501C3E7D1E017E107C07E
:100A70008EE291E00E9495018127895E89938EE242
:100A800091E00E948F01882399F78EE291E062E560
:100A900070E00E9485018EE291E060E070E00E94CB
:100AA000D1018EE291E00E94D401A0907501A09244
:100AB000430180917601809344012091780130E0D8
:100AC00041E050E0C901842795278170809345015A
:100AD000369527952427352721702093460100D08D
:100AE00000D04DB65EB60894411C511CBB24CC24EA
:100AF000DD2460911001709111018091120190919B
:100B000013010E94070A3B014C016091140170918E
:100B1000150180911601909117010E94070A7B012F
:100B20008C0180E293E0A0E0B0E0F2018083918349
:100B3000A283B383C601B501A4019301AA24BB24F7
:100B400065010E943B087093700160936F014DB680
:100B50005EB60894411C511CA0904401BB24CC24D7
:100B6000DD2460910C0170910D0180910E01909136
:100B70000F010E94070A3B014C016091080170912E
:100B8000090180910A0190910B010E94070A7B01E3
:100B90008C01F2011082118212821382C601B5010A
:100BA000A4019301E0E2AE2EE3E0BE2EC12CD12CD5
:100BB0000E943B0870937201609371010F900F9037
:100BC0000F900F900E94CE048091410190914201BC
:100BD0000196909342018093410161E070E080E0D2
:100BE00090E00E949A06DF91CF911F910F91FF90A4
:100BF000EF90DF90CF90BF90AF909F908F907F90BD
:100C00006F905F904F9008950F931F9380911801FC
:100C10009091190163E070E00E94BD0A882777FD7A
:100C20008095982F0E943A0A60934701709348017B
:100C30008093490190934A0186E092E040E052ECB3
:100C400061E070E00E94C10887B18C6087B942986A
:100C5000439A64E670E080E090E00E949A060EE21B
:100C600011E0C8010E94F801C80162E570E00E942D
:100C70008501C80160E470E00E94D101C80160E014
:100C800070E00E94D101C8010E94D4010E94640456
:100C90001F910F9108950E94C4060E9404060E94AD
:100CA0001105FDCF1F920F920FB60F9211242F93B3
:100CB0003F938F939F93AF93BF9380917D019091CA
:100CC0007E01A0917F01B091800130918101019658
:100CD000A11DB11D232F2D5F2D3720F02D5701961B
:100CE000A11DB11D2093810180937D0190937E0110
:100CF000A0937F01B09380018091790190917A0156
:100D0000A0917B01B0917C010196A11DB11D809342
:100D1000790190937A01A0937B01B0937C01BF91FC
:100D2000AF919F918F913F912F910F900FBE0F9098
:100D30001F901895EF92FF920F931F937B018C01E8
:100D40008FB7F89440917D0150917E0160917F01B1
:100D5000709180018FBF2FB7F89480917D019091A1
:100D60007E01A0917F01B09180012FBF841B950B64
:100D7000A60BB70BE816F9060A071B0760F71F91C9
:100D80000F91FF90EF900895789484B5826084BDB0
:100D900084B5816084BD85B5826085BD85B581607F
:100DA00085BDEEE6F0E0808181608083E1E8F0E0DF
:100DB000808182608083808181608083E0E8F0E0D0
:100DC000808181608083E1EBF0E0808184608083BA
:100DD000E0EBF0E0808181608083EAE7F0E08081F1
:100DE0008460808380818260808380818160808351
:100DF0008081806880831092C10008950F931F93B3
:100E0000CF93DF938C01EB0109C02196D801ED91BE
:100E1000FC910190F081E02DC8010995688166235D
:100E2000A1F7DF91CF911F910F910895EF92FF925B
:100E30000F931F93CF93DF938C017B01EA010CC0CA
:100E4000D7016D917D01D801ED91FC910190F08168
:100E5000E02DC80109952197209791F7DF91CF9157
:100E60001F910F91FF90EF900895DC01ED91FC919F
:100E70000280F381E02D099508950F931F938C0153
:100E8000DC01ED91FC910190F081E02D6DE0099580
:100E9000D801ED91FC910190F081E02DC8016AE04C
:100EA00009951F910F9108952F923F924F925F9253
:100EB0006F927F928F929F92AF92BF92CF92DF926A
:100EC000EF92FF920F931F93DF93CF93CDB7DEB7CF
:100ED000A0970FB6F894DEBF0FBECDBF1C016A010C
:100EE0007B01411551056105710549F4DC01ED9166
:100EF000FC910190F081E02D60E3099554C08824B5
:100F000099245401422E55246624772401E010E0F0
:100F10000C0F1D1F080D191DC701B601A301920179
:100F20000E94D00AF80160830894811C911CA11CC6
:100F3000B11CC701B601A30192010E94D00AC901E8
:100F4000DA016C017D01C114D104E104F104F1F670
:100F500081E0E82EF12CEC0EFD1EE80CF91C3E01A0
:100F60000894611C711CD501C4010197A109B10944
:100F70006C01C818D90814C0F601EE0DFF1D608180
:100F80006A3010F4605D01C0695CD101ED91FC91A3
:100F90000190F081E02DC10109950894E108F10864
:100FA0006E147F0449F7A0960FB6F894DEBF0FBE0B
:100FB000CDBFCF91DF911F910F91FF90EF90DF9008
:100FC000CF90BF90AF909F908F907F906F905F90E9
:100FD0004F903F902F900895EF92FF920F931F93A1
:100FE000CF93DF93EC017A018B0177FF0FC0E8818B
:100FF000F9810190F081E02D6DE209951095009541
:10100000F094E094E11CF11C011D111DCE01B8010A
:10101000A7012AE00E945407DF91CF911F910F9101
:10102000FF90EF900895AB01662757FD6095762FEE
:101030000E94EC070895DC012115310541F4ED9182
:10104000FC910190F081E02D642F099508952A30DC
:10105000310519F40E94EC0708950E945407089581
:101060000F931F938C010E941B08C8010E943D072B
:101070001F910F9108952F923F924F925F926F921E
:101080007F928F929F92AF92BF92CF92DF92EF9218
:10109000FF920F931F93DF93CF93CDB7DEB73B0142
:1010A0004C0119012A016D897E898F89988D6A19F1
:1010B0007B098C099D09621A730A840A950AA401A6
:1010C00093010E949E0AE218F30804091509A80179
:1010D00097010E94F20A2A0D3B1D4C1D5D1DB901AE
:1010E000CA01CF91DF911F910F91FF90EF90DF9098
:1010F000CF90BF90AF909F908F907F906F905F90B8
:101100004F903F902F9008951F920F920FB60F921D
:1011100011242F933F934F935F936F937F938F93FC
:101120009F93AF93BF93EF93FF934091C600E091DD
:101130000202F0910302CF01019660E870E00E9484
:10114000BD0A9C018091040290910502281739077D
:1011500039F0EE57FE4F4083309303022093020292
:10116000FF91EF91BF91AF919F918F917F916F917F
:101170005F914F913F912F910F900FBE0F901F9055
:1011800018955F926F927F928F929F92AF92BF92CB
:10119000CF92DF92EF92FF920F931F93CF93DF9343
:1011A000EC013A014B01413482E458078FE06807B3
:1011B00080E078070CF07FC060E874E88EE190E092
:1011C000A40193010E94F20A215030404040504057
:1011D000CA01B90122E030E040E050E00E94F20A8A
:1011E00059016A01A60195012095309540955095C9
:1011F00094E0220F331F441F551F9A95D1F760E0EA
:1012000074E284EF90E00E94F20ACA01B9012FEF64
:1012100030E040E050E00E949E0AA40193010E9449
:10122000F20AC90181509F4F181619061CF4522E5C
:101230005A9403C055245394521A60E079E08DE328
:1012400090E0A40193010E94F20A215030404040F6
:101250005040CA01B90122E030E040E050E00E9475
:10126000F20A209530954095509583E0220F331F68
:10127000441F551F8A95D1F760E074E284EF90E037
:101280000E94F20ACA01B9012FEF30E040E050E0BD
:101290000E949E0AA40193010E94F20AC901815092
:1012A0009F4F181619061CF4822F815002C081E04E
:1012B000821B851500F5E885F98581E090E00A88B4
:1012C00002C0880F991F0A94E2F7808360E079E0FA
:1012D0008DE390E0A40193010E94F20A2150304076
:1012E00040405040CA01B90122E030E040E050E007
:1012F0000E94F20A04C0E885F98510829501EC810C
:10130000FD813083EE81FF812083EA85FB8520818A
:1013100041E050E0CA010E8402C0880F991F0A9470
:10132000E2F7282B2083EA85FB852081CA010F8400
:1013300002C0880F991F0A94E2F7282B2083EA85C0
:10134000FB858081088802C0440F551F0A94E2F78C
:10135000842B8083DF91CF911F910F91FF90EF90AD
:10136000DF90CF90BF90AF909F908F907F906F90C5
:101370005F900895FC01A085B18521898C9190E052
:10138000022E02C0959587950A94E2F780FFF6CF6A
:101390000484F585E02D608308958EE191E09093BB
:1013A00007028093060282E891E0909309028093FD
:1013B000080285EC90E090930B0280930A0284EC83
:1013C00090E090930D0280930C0280EC90E090935B
:1013D0000F0280930E0281EC90E0909311028093B3
:1013E000100286EC90E0909313028093120284E046
:1013F0008093140283E08093150287E080931602A5
:1014000085E08093170281E080931802089504D04C
:101410006894B1118DC0089570D088F09F5790F0F6
:10142000B92F9927B751A0F0D1F0660F771F881F09
:10143000991F1AF0BA95C9F712C0B13081F077D070
:10144000B1E0089574C0672F782F8827B85F39F00E
:10145000B93FCCF3869577956795B395D9F73EF468
:1014600090958095709561957F4F8F4F9F4F089510
:10147000E89409C097FB3EF490958095709561952E
:101480007F4F8F4F9F4F9923A9F0F92F96E9BB27E4
:101490009395F695879577956795B795F111F8CF60
:1014A000FAF4BB0F11F460FF1BC06F5F7F4F8F4FCB
:1014B0009F4F16C0882311F096E911C0772321F0C1
:1014C0009EE8872F762F05C0662371F096E8862F59
:1014D00070E060E02AF09A95660F771F881FDAF7B0
:1014E000880F9695879597F9089557FD9058440F62
:1014F000551F59F05F3F71F04795880F97FB991F73
:1015000061F09F3F79F0879508951216130614062F
:10151000551FF2CF4695F1DF08C0161617061806BC
:10152000991FF1CF86957105610508940895E89497
:10153000BB2766277727CB0197F90895629FD001D3
:10154000739FF001829FE00DF11D649FE00DF11D7E
:10155000929FF00D839FF00D749FF00D659FF00D2D
:101560009927729FB00DE11DF91F639FB00DE11D1A
:10157000F91FBD01CF011124089597FB092E0726FD
:101580000AD077FD04D049D006D000201AF4709517
:1015900061957F4F0895F6F7909581959F4F089537
:1015A000A1E21A2EAA1BBB1BFD010DC0AA1FBB1F67
:1015B000EE1FFF1FA217B307E407F50720F0A21BD9
:1015C000B30BE40BF50B661F771F881F991F1A9446
:1015D00069F760957095809590959B01AC01BD0170
:1015E000CF01089597FB092E05260ED057FD04D094
:1015F000D7DF0AD0001C38F45095409530952195DE
:101600003F4F4F4F5F4F0895F6F790958095709537
:1016100061957F4F8F4F9F4F0895AA1BBB1B51E1D0
:1016200007C0AA1FBB1FA617B70710F0A61BB70B52
:10163000881F991F5A95A9F780959095BC01CD01F7
:101640000895EE0FFF1F0590F491E02D0994F89492
:02165000FFCFCA
:10165200200020001D020000000037430000A042CD
:101662000000A04200003743200300000000BA0936
:04167200FE06160753
:00000001FF
